:1000000043C052C051C050C04FC04EC04DC04CC084
:100010004BC04AC049C048C047C046C045C044C0A4
:1000200043C042C041C0666F756E64200D0A004235
:100030007573204572726F720D0A004E6F20536502
:100040006E736F7220666F756E64200D0A005374B4
:1000500061727420736561726368696E672064659C
:10006000766963650D0A000D0A0044533138423247
:100070003000445331383232004453313853323037
:100080002F4453313832300011241FBECFE5D4E065
:10009000DEBFCDBF20E0A0E6B0E001C01D92A836D3
:1000A000B207E1F70ED166C2ABCFFC01680F791F32
:1000B00080E048E1E617F70781F0219198E0382FBA
:1000C0003227532F517030FD84278695513009F423
:1000D00080682695915099F7EDCF0895FB01208116
:1000E0003181803159F42E7F73E0220F331F7A95CE
:1000F000E1F79681291B3109245F3F4F37FF05C087
:1001000031952195310971E001C070E0883211F01C
:10011000823269F484818076803231F0803431F02B
:10012000811105C0287F03C02C7F01C02E7FA9014B
:1001300064E0569547956A95E1F76AE0649FC001CF
:10014000659F900D11242F703327E0E8F2E02E9F79
:10015000A0012F9F500D3E9F500D1124711101C021
:100160005E5F9A01232F332726952695280F391F86
:10017000772319F0319521953109C9018A5D9D4F89
:100180008930974018F080ED97E00895C9010895EF
:10019000EF92FF920F931F93CF93DF93EB01BC017C
:1001A0008EEBE4D18E017E0189E0E80EF11C94D142
:1001B000F80181938F01EE15FF05C9F769E070E042
:1001C000CE0173DF811183E0DF91CF911F910F91F9
:1001D000FF90EF9008950F931F93CF93DF93EC015F
:1001E0008B01B80188817AD1888381508D3F48F492
:1001F000F8018081883239F0803129F0823289F724
:1002000002C081E001C080E0DF91CF911F910F918A
:1002100008951F93CF93DF93182FEB01EDD0C4D037
:10022000882349F0BE0184E4113011F0A1D101C04E
:100230009DD180E001C082E0DF91CF911F910895B0
:10024000EF92FF920F931F93CF93DF93CDB7DEB75B
:1002500029970FB6F894DEBF0FBECDBF082F7B01E4
:10026000BE016F5F7F4F80E090E092DF182F811119
:1002700008C0BE016F5F7F4F802F30DFF701918391
:100280008083812F29960FB6F894DEBF0FBECDBFB5
:10029000DF91CF911F910F91FF90EF9008955D9B9B
:1002A000FECF8CB90895CF93DF93FC018491EF01C9
:1002B0002196882319F0F3DFFE01F8CFDF91CF916B
:1002C0000895CF93DF93CDB7DEB729970FB6F89493
:1002D000DEBF0FBECDBF83E389B910BC539A80B592
:1002E000866880BD78948EE490E0DDDF85D08FEF66
:1002F000898780E08E01075F1F4F99859923F1F070
:1003000081111CC0BE016F5F7F4FC80164DF89850A
:100310008F3F19F48BE390E004C08E3F21F48FE20D
:1003200090E0C1DF0BC0FE013196A0E6B0E0819104
:100330008D9381E0E017F107D1F7DFCF86E290E0FF
:10034000B2DF80916000803119F489E790E007C046
:10035000823219F482E790E002C08AE690E0A3DFDF
:1003600087E690E0A0DF60E070E080E052DF2FE7FA
:100370008FE492E1215080409040E1F700C00000FE
:10038000BE016F5F7F4F809160005ADF19810A8143
:1003900085E585DF802F83DF812F81DF802F810F2F
:1003A0007EDF8AEA7CDFDFCF80B380740895969A7F
:1003B0008E9A0895CF93DF93C82FDFB7F8948E9A63
:1003C00085E08A95F1F70000C1118E9882E28A9546
:1003D000F1F700C0869BC0E082E78A95F1F700C084
:1003E0008E986111E4DFDFBF8AE18A95F1F700C0E2
:1003F0008C2FDF91CF91089596988E9A8FEB93E092
:100400000197F1F700C000009FB7F8948E98EAEAD0
:10041000EA95F1F700C080B39FBFEFE3F3E03197B7
:10042000F1F700C00000869B02C08074089581E04F
:10043000089560E08170BECFCF93DF93C82FD8E0DE
:100440008C2F8170F6DFC6958111C068D150C1F73D
:100450008C2FDF91CF910895CF93DF93C82FD8E0F1
:100460008C2F8170D13011F060E001C061E0A2DF1B
:10047000C6958111C068D15099F78C2FDF91CF912B
:100480000895EF92FF920F931F93CF93DF93182F4E
:10049000EB01042FB1DF209761F085E5CDDF7E0110
:1004A00088E0E80EF11C8991C7DFCE15DF05D9F78A
:1004B00002C08CECC1DF812F002339F0DF91CF9196
:1004C0001F910F91FF90EF90C7CFDF91CF911F91B8
:1004D0000F91FF90EF90B0CF8FEFAECFDF92EF9202
:1004E000FF920F931F93CF93DF93E82E8B0184DF4E
:1004F000811131C080EFA0DFD0E0C0E488EFD82EBA
:10050000DC0E81E096DFF82E81E093DF882319F07E
:10051000FF2071F022C0F1100BC0CE1530F0F801B1
:10052000808180FF05C0CE1519F0DC2FFF24F394E5
:100530008F2D7FDFF80180818695FF2011F0806884
:10054000F8018083C150CD11DCCF0F5F1F4FC11167
:10055000D5CF8D2F03C08FEF01C08EEFDF91CF91EC
:100560001F910F91FF90EF90DF90089540E089CFA9
:0805700041E087CFF894FFCFB2
:00000001FF
