:1000000012C021C020C01FC01EC01DC01CC01BC00C
:100010001AC019C018C018C016C015C014C013C02B
:1000200012C011C010C011241FBECFE5D4E0DEBF46
:10003000CDBF20E0A0E6B0E001C01D92A636B20719
:10004000E1F75AD074C0DCCF1F920F920FB60F9217
:1000500011242F933F934F935F938F939F938CB172
:1000600090916000923071F040F4913089F51092D7
:1000700061008093620082E032C0933081F094305E
:10008000B9F026C02091610030916200A901482B8F
:10009000CA01909362008093610083E020C0909138
:1000A000610020916200920F89130FC084E017C095
:1000B0008A3A59F4809161009091620090936400B3
:1000C0008093630081E0809365001092600009C016
:1000D0001092620010926100853519F481E08093DE
:1000E00060009F918F915F914F913F912F910F9061
:1000F0000FBE0F901F901895B89A83E389B910BC72
:1001000080E98AB980B5866880BD78948091650061
:100110008823E1F3809163009091640085379F4FBD
:1001200014F0C09A01C0C09810926500EFCFF89407
:02013000FFCFFF
:00000001FF
